{
  "_format": "hh-sol-artifact-1",
  "contractName": "UniversalResolver",
  "sourceName": "contracts/utils/UniversalResolver.sol",
  "abi": [
    {
      "inputs": [
        {
          "internalType": "address",
          "name": "_registry",
          "type": "address"
        },
        {
          "internalType": "string[]",
          "name": "_urls",
          "type": "string[]"
        }
      ],
      "stateMutability": "nonpayable",
      "type": "constructor"
    },
    {
      "inputs": [
        {
          "internalType": "address",
          "name": "sender",
          "type": "address"
        },
        {
          "internalType": "string[]",
          "name": "urls",
          "type": "string[]"
        },
        {
          "internalType": "bytes",
          "name": "callData",
          "type": "bytes"
        },
        {
          "internalType": "bytes4",
          "name": "callbackFunction",
          "type": "bytes4"
        },
        {
          "internalType": "bytes",
          "name": "extraData",
          "type": "bytes"
        }
      ],
      "name": "OffchainLookup",
      "type": "error"
    },
    {
      "anonymous": false,
      "inputs": [
        {
          "indexed": true,
          "internalType": "address",
          "name": "previousOwner",
          "type": "address"
        },
        {
          "indexed": true,
          "internalType": "address",
          "name": "newOwner",
          "type": "address"
        }
      ],
      "name": "OwnershipTransferred",
      "type": "event"
    },
    {
      "inputs": [
        {
          "internalType": "bytes",
          "name": "name",
          "type": "bytes"
        },
        {
          "internalType": "bytes",
          "name": "data",
          "type": "bytes"
        },
        {
          "internalType": "string[]",
          "name": "gateways",
          "type": "string[]"
        },
        {
          "internalType": "bytes4",
          "name": "callbackFunction",
          "type": "bytes4"
        },
        {
          "internalType": "bytes",
          "name": "metaData",
          "type": "bytes"
        }
      ],
      "name": "_resolveSingle",
      "outputs": [
        {
          "internalType": "bytes",
          "name": "",
          "type": "bytes"
        },
        {
          "internalType": "address",
          "name": "",
          "type": "address"
        }
      ],
      "stateMutability": "view",
      "type": "function"
    },
    {
      "inputs": [
        {
          "internalType": "uint256",
          "name": "",
          "type": "uint256"
        }
      ],
      "name": "batchGatewayURLs",
      "outputs": [
        {
          "internalType": "string",
          "name": "",
          "type": "string"
        }
      ],
      "stateMutability": "view",
      "type": "function"
    },
    {
      "inputs": [
        {
          "internalType": "bytes",
          "name": "name",
          "type": "bytes"
        }
      ],
      "name": "findResolver",
      "outputs": [
        {
          "internalType": "contract Resolver",
          "name": "",
          "type": "address"
        },
        {
          "internalType": "bytes32",
          "name": "",
          "type": "bytes32"
        }
      ],
      "stateMutability": "view",
      "type": "function"
    },
    {
      "inputs": [],
      "name": "owner",
      "outputs": [
        {
          "internalType": "address",
          "name": "",
          "type": "address"
        }
      ],
      "stateMutability": "view",
      "type": "function"
    },
    {
      "inputs": [],
      "name": "registry",
      "outputs": [
        {
          "internalType": "contract ENS",
          "name": "",
          "type": "address"
        }
      ],
      "stateMutability": "view",
      "type": "function"
    },
    {
      "inputs": [],
      "name": "renounceOwnership",
      "outputs": [],
      "stateMutability": "nonpayable",
      "type": "function"
    },
    {
      "inputs": [
        {
          "internalType": "bytes",
          "name": "name",
          "type": "bytes"
        },
        {
          "internalType": "bytes",
          "name": "data",
          "type": "bytes"
        },
        {
          "internalType": "string[]",
          "name": "gateways",
          "type": "string[]"
        }
      ],
      "name": "resolve",
      "outputs": [
        {
          "internalType": "bytes",
          "name": "",
          "type": "bytes"
        },
        {
          "internalType": "address",
          "name": "",
          "type": "address"
        }
      ],
      "stateMutability": "view",
      "type": "function"
    },
    {
      "inputs": [
        {
          "internalType": "bytes",
          "name": "name",
          "type": "bytes"
        },
        {
          "internalType": "bytes[]",
          "name": "data",
          "type": "bytes[]"
        }
      ],
      "name": "resolve",
      "outputs": [
        {
          "internalType": "bytes[]",
          "name": "",
          "type": "bytes[]"
        },
        {
          "internalType": "address",
          "name": "",
          "type": "address"
        }
      ],
      "stateMutability": "view",
      "type": "function"
    },
    {
      "inputs": [
        {
          "internalType": "bytes",
          "name": "name",
          "type": "bytes"
        },
        {
          "internalType": "bytes[]",
          "name": "data",
          "type": "bytes[]"
        },
        {
          "internalType": "string[]",
          "name": "gateways",
          "type": "string[]"
        }
      ],
      "name": "resolve",
      "outputs": [
        {
          "internalType": "bytes[]",
          "name": "",
          "type": "bytes[]"
        },
        {
          "internalType": "address",
          "name": "",
          "type": "address"
        }
      ],
      "stateMutability": "view",
      "type": "function"
    },
    {
      "inputs": [
        {
          "internalType": "bytes",
          "name": "name",
          "type": "bytes"
        },
        {
          "internalType": "bytes",
          "name": "data",
          "type": "bytes"
        }
      ],
      "name": "resolve",
      "outputs": [
        {
          "internalType": "bytes",
          "name": "",
          "type": "bytes"
        },
        {
          "internalType": "address",
          "name": "",
          "type": "address"
        }
      ],
      "stateMutability": "view",
      "type": "function"
    },
    {
      "inputs": [
        {
          "internalType": "bytes",
          "name": "response",
          "type": "bytes"
        },
        {
          "internalType": "bytes",
          "name": "extraData",
          "type": "bytes"
        }
      ],
      "name": "resolveCallback",
      "outputs": [
        {
          "internalType": "bytes[]",
          "name": "",
          "type": "bytes[]"
        },
        {
          "internalType": "address",
          "name": "",
          "type": "address"
        }
      ],
      "stateMutability": "nonpayable",
      "type": "function"
    },
    {
      "inputs": [
        {
          "internalType": "bytes",
          "name": "response",
          "type": "bytes"
        },
        {
          "internalType": "bytes",
          "name": "extraData",
          "type": "bytes"
        }
      ],
      "name": "resolveSingleCallback",
      "outputs": [
        {
          "internalType": "bytes",
          "name": "",
          "type": "bytes"
        },
        {
          "internalType": "address",
          "name": "",
          "type": "address"
        }
      ],
      "stateMutability": "nonpayable",
      "type": "function"
    },
    {
      "inputs": [
        {
          "internalType": "bytes",
          "name": "reverseName",
          "type": "bytes"
        },
        {
          "internalType": "string[]",
          "name": "gateways",
          "type": "string[]"
        }
      ],
      "name": "reverse",
      "outputs": [
        {
          "internalType": "string",
          "name": "",
          "type": "string"
        },
        {
          "internalType": "address",
          "name": "",
          "type": "address"
        },
        {
          "internalType": "address",
          "name": "",
          "type": "address"
        },
        {
          "internalType": "address",
          "name": "",
          "type": "address"
        }
      ],
      "stateMutability": "view",
      "type": "function"
    },
    {
      "inputs": [
        {
          "internalType": "bytes",
          "name": "reverseName",
          "type": "bytes"
        }
      ],
      "name": "reverse",
      "outputs": [
        {
          "internalType": "string",
          "name": "",
          "type": "string"
        },
        {
          "internalType": "address",
          "name": "",
          "type": "address"
        },
        {
          "internalType": "address",
          "name": "",
          "type": "address"
        },
        {
          "internalType": "address",
          "name": "",
          "type": "address"
        }
      ],
      "stateMutability": "view",
      "type": "function"
    },
    {
      "inputs": [
        {
          "internalType": "bytes",
          "name": "response",
          "type": "bytes"
        },
        {
          "internalType": "bytes",
          "name": "extraData",
          "type": "bytes"
        }
      ],
      "name": "reverseCallback",
      "outputs": [
        {
          "internalType": "string",
          "name": "",
          "type": "string"
        },
        {
          "internalType": "address",
          "name": "",
          "type": "address"
        },
        {
          "internalType": "address",
          "name": "",
          "type": "address"
        },
        {
          "internalType": "address",
          "name": "",
          "type": "address"
        }
      ],
      "stateMutability": "nonpayable",
      "type": "function"
    },
    {
      "inputs": [
        {
          "internalType": "string[]",
          "name": "_urls",
          "type": "string[]"
        }
      ],
      "name": "setGatewayURLs",
      "outputs": [],
      "stateMutability": "nonpayable",
      "type": "function"
    },
    {
      "inputs": [
        {
          "internalType": "bytes4",
          "name": "interfaceId",
          "type": "bytes4"
        }
      ],
      "name": "supportsInterface",
      "outputs": [
        {
          "internalType": "bool",
          "name": "",
          "type": "bool"
        }
      ],
      "stateMutability": "view",
      "type": "function"
    },
    {
      "inputs": [
        {
          "internalType": "address",
          "name": "newOwner",
          "type": "address"
        }
      ],
      "name": "transferOwnership",
      "outputs": [],
      "stateMutability": "nonpayable",
      "type": "function"
    }
  ],
  "bytecode": "0x60a06040523480156200001157600080fd5b5060405162003bde38038062003bde8339810160408190526200003491620001da565b6200003f336200006a565b6001600160a01b038216608052805162000061906001906020840190620000ba565b5050506200049c565b600080546001600160a01b038381166001600160a01b0319831681178455604051919092169283917f8be0079c531659141344cd1fd0a4f28419497f9722a3daafe3b4186f6b6457e09190a35050565b82805482825590600052602060002090810192821562000105579160200282015b82811115620001055782518290620000f49082620003d0565b5091602001919060010190620000db565b506200011392915062000117565b5090565b80821115620001135760006200012e828262000138565b5060010162000117565b508054620001469062000341565b6000825580601f1062000157575050565b601f0160209004906000526020600020908101906200017791906200017a565b50565b5b808211156200011357600081556001016200017b565b634e487b7160e01b600052604160045260246000fd5b604051601f8201601f191681016001600160401b0381118282101715620001d257620001d262000191565b604052919050565b6000806040808486031215620001ef57600080fd5b83516001600160a01b03811681146200020757600080fd5b602085810151919450906001600160401b03808211156200022757600080fd5b8187019150601f88818401126200023d57600080fd5b82518281111562000252576200025262000191565b8060051b62000263868201620001a7565b918252848101860191868101908c8411156200027e57600080fd5b87870192505b838310156200032e578251868111156200029e5760008081fd5b8701603f81018e13620002b15760008081fd5b8881015187811115620002c857620002c862000191565b620002db818801601f19168b01620001a7565b8181528f8c838501011115620002f15760008081fd5b60005b8281101562000311578381018d01518282018d01528b01620002f4565b5060009181018b0191909152835250918701919087019062000284565b8099505050505050505050509250929050565b600181811c908216806200035657607f821691505b6020821081036200037757634e487b7160e01b600052602260045260246000fd5b50919050565b601f821115620003cb57600081815260208120601f850160051c81016020861015620003a65750805b601f850160051c820191505b81811015620003c757828155600101620003b2565b5050505b505050565b81516001600160401b03811115620003ec57620003ec62000191565b6200040481620003fd845462000341565b846200037d565b602080601f8311600181146200043c5760008415620004235750858301515b600019600386901b1c1916600185901b178555620003c7565b600085815260208120601f198616915b828110156200046d578886015182559484019460019091019084016200044c565b50858210156200048c5787850151600019600388901b60f8161c191681555b5050505050600190811b01905550565b60805161371f620004bf600039600081816101ea0152611615015261371f6000f3fe608060405234801561001057600080fd5b50600436106101365760003560e01c80638e5ea8df116100b2578063b241d0d311610081578063e0a8541211610066578063e0a854121461030d578063ec11c82314610320578063f2fde38b1461033357600080fd5b8063b241d0d3146102e7578063b4a85801146102fa57600080fd5b80638e5ea8df146102625780639061b92314610275578063a1cbcbaf14610288578063a6b16419146102c757600080fd5b8063715018a6116101095780637b103999116100ee5780637b103999146101e55780638da5cb5b146102315780638e25a0f31461024f57600080fd5b8063715018a6146101c857806376286c00146101d257600080fd5b806301ffc9a71461013b5780630667cfea14610163578063206c74c9146101845780636dc4fb73146101a5575b600080fd5b61014e610149366004612397565b610346565b60405190151581526020015b60405180910390f35b6101766101713660046125d0565b6103df565b60405161015a9291906126ae565b610197610192366004612766565b610414565b60405161015a9291906127cf565b6101b86101b336600461286f565b610502565b60405161015a94939291906128db565b6101d06105e8565b005b6101976101e0366004612924565b61067a565b61020c7f000000000000000000000000000000000000000000000000000000000000000081565b60405173ffffffffffffffffffffffffffffffffffffffff909116815260200161015a565b60005473ffffffffffffffffffffffffffffffffffffffff1661020c565b61017661025d366004612983565b6106a2565b6101d0610270366004612a49565b610738565b610176610283366004612a86565b6107d0565b61029b610296366004612ae5565b6108c9565b6040805173ffffffffffffffffffffffffffffffffffffffff909316835260208301919091520161015a565b6102da6102d5366004612b27565b6108ea565b60405161015a9190612b40565b6101b86102f5366004612b53565b610996565b61019761030836600461286f565b610ab5565b61017661031b36600461286f565b610af9565b6101b861032e366004612ae5565b610b5d565b6101d0610341366004612bd4565b610c50565b60007fffffffff0000000000000000000000000000000000000000000000000000000082167f9061b9230000000000000000000000000000000000000000000000000000000014806103d957507f01ffc9a7000000000000000000000000000000000000000000000000000000007fffffffff000000000000000000000000000000000000000000000000000000008316145b92915050565b606060006104078686868663e0a8541260e01b604051806020016040528060008152506106a2565b9150915094509492505050565b606060006104f58585856001805480602002602001604051908101604052809291908181526020016000905b828210156104ec57838290600052602060002001805461045f90612bf1565b80601f016020809104026020016040519081016040528092919081815260200182805461048b90612bf1565b80156104d85780601f106104ad576101008083540402835291602001916104d8565b820191906000526020600020905b8154815290600101906020018083116104bb57829003601f168201915b505050505081526020019060010190610440565b5050505061067a565b915091505b935093915050565b606060008080808080806105398c8c8c8c7f6dc4fb7300000000000000000000000000000000000000000000000000000000610d80565b93509350935093506000815111156105ab57600080828060200190518101906105629190612c89565b9150915060008660008151811061057b5761057b612cdb565b60200260200101518060200190518101906105969190612d0a565b929a5091985096509294506105dd9350505050565b6105d0846000815181106105c1576105c1612cdb565b6020026020010151848461111a565b9750975097509750505050505b945094509450949050565b60005473ffffffffffffffffffffffffffffffffffffffff16331461066e576040517f08c379a000000000000000000000000000000000000000000000000000000000815260206004820181905260248201527f4f776e61626c653a2063616c6c6572206973206e6f7420746865206f776e657260448201526064015b60405180910390fd5b610678600061129d565b565b606060006104078686868663b4a8580160e01b60405180602001604052806000815250611312565b6040805160018082528183019092526060916000918291816020015b60608152602001906001900390816106be57905050905086816000815181106106e9576106e9612cdb565b60200260200101819052506000806107058b8b858b8b8b611312565b915091508160008151811061071c5761071c612cdb565b602002602001015181945094505050505b965096945050505050565b60005473ffffffffffffffffffffffffffffffffffffffff1633146107b9576040517f08c379a000000000000000000000000000000000000000000000000000000000815260206004820181905260248201527f4f776e61626c653a2063616c6c6572206973206e6f7420746865206f776e65726044820152606401610665565b80516107cc9060019060208401906122ac565b5050565b606060006104f58585856001805480602002602001604051908101604052809291908181526020016000905b828210156108a857838290600052602060002001805461081b90612bf1565b80601f016020809104026020016040519081016040528092919081815260200182805461084790612bf1565b80156108945780601f1061086957610100808354040283529160200191610894565b820191906000526020600020905b81548152906001019060200180831161087757829003601f168201915b5050505050815260200190600101906107fc565b5050505063e0a8541260e01b604051806020016040528060008152506106a2565b6000806000806108db86866000611502565b909450925050505b9250929050565b600181815481106108fa57600080fd5b90600052602060002001600091509050805461091590612bf1565b80601f016020809104026020016040519081016040528092919081815260200182805461094190612bf1565b801561098e5780601f106109635761010080835404028352916020019161098e565b820191906000526020600020905b81548152906001019060200180831161097157829003601f168201915b505050505081565b60606000806000806109e2600089898080601f01602080910402602001604051908101604052809392919081815260200183838082843760009201919091525092939250506116bf9050565b6040516024016109f491815260200190565b60408051601f19818403018152918152602080830180517bffffffffffffffffffffffffffffffffffffffffffffffffffffffff167f691f343100000000000000000000000000000000000000000000000000000000179052815190810190915260008082529192508190610a92908b908b9086908c907f6dc4fb7300000000000000000000000000000000000000000000000000000000906106a2565b91509150610aa182828a61111a565b965096509650965050505093509350935093565b606060008080610ae8888888887fb4a8580100000000000000000000000000000000000000000000000000000000610d80565b50919a909950975050505050505050565b606060008080610b2c888888887fe0a8541200000000000000000000000000000000000000000000000000000000610d80565b50509150915081600081518110610b4557610b45612cdb565b60200260200101518193509350505094509492505050565b60606000806000610c4086866001805480602002602001604051908101604052809291908181526020016000905b82821015610c37578382906000526020600020018054610baa90612bf1565b80601f0160208091040260200160405190810160405280929190818152602001828054610bd690612bf1565b8015610c235780601f10610bf857610100808354040283529160200191610c23565b820191906000526020600020905b815481529060010190602001808311610c0657829003601f168201915b505050505081526020019060010190610b8b565b50505050610996565b9299919850965090945092505050565b60005473ffffffffffffffffffffffffffffffffffffffff163314610cd1576040517f08c379a000000000000000000000000000000000000000000000000000000000815260206004820181905260248201527f4f776e61626c653a2063616c6c6572206973206e6f7420746865206f776e65726044820152606401610665565b73ffffffffffffffffffffffffffffffffffffffff8116610d74576040517f08c379a000000000000000000000000000000000000000000000000000000000815260206004820152602660248201527f4f776e61626c653a206e6577206f776e657220697320746865207a65726f206160448201527f64647265737300000000000000000000000000000000000000000000000000006064820152608401610665565b610d7d8161129d565b50565b60606000606080610e0660405180610100016040528060608152602001606081526020016060815260200160007bffffffffffffffffffffffffffffffffffffffffffffffffffffffff19168152602001600073ffffffffffffffffffffffffffffffffffffffff16815260200160001515815260200160608152602001606081525090565b7fffffffff000000000000000000000000000000000000000000000000000000008616606080830191909152610e3e8a8c018c612d35565b60e084019190915290506060610e56898b018b612ded565b60c0870191909152604086019190915273ffffffffffffffffffffffffffffffffffffffff9091166080850152805183519192501015610e9557600080fd5b805167ffffffffffffffff811115610eaf57610eaf6123fd565b604051908082528060200260200182016040528015610ee257816020015b6060815260200190600190039081610ecd5790505b5060208401526000805b82518110156110e9578251600090849083908110610f0c57610f0c612cdb565b6020026020010151600001517bffffffffffffffffffffffffffffffffffffffffffffffffffffffff191603610f8057828181518110610f4e57610f4e612cdb565b60200260200101516020015185602001518281518110610f7057610f70612cdb565b60200260200101819052506110d7565b8460e001518181518110610f9657610f96612cdb565b602002602001015115610fe357838281518110610fb557610fb5612cdb565b602002602001015185602001518281518110610fd357610fd3612cdb565b60200260200101819052506110c9565b828181518110610ff557610ff5612cdb565b60200260200101516000015184838151811061101357611013612cdb565b602002602001015184838151811061102d5761102d612cdb565b60200260200101516020015160405160240161104a929190612f4c565b604051602081830303815290604052907bffffffffffffffffffffffffffffffffffffffffffffffffffffffff19166020820180517bffffffffffffffffffffffffffffffffffffffffffffffffffffffff8381831617835250505050856020015182815181106110bd576110bd612cdb565b60200260200101819052505b6110d4826001612fa9565b91505b806110e181612fbc565b915050610eec565b506110f384611798565b846080015185604001518660c0015197509750975097505050505095509550955095915050565b6060600080600080878060200190518101906111369190612ff4565b905060008061114483611c30565b9150915060008160405160240161115d91815260200190565b60408051601f19818403018152918152602080830180517bffffffffffffffffffffffffffffffffffffffffffffffffffffffff167f3b3b57de0000000000000000000000000000000000000000000000000000000017905290519192506000916111cc918e918e91016126ae565b60405160208183030381529060405290506000803073ffffffffffffffffffffffffffffffffffffffff16638e25a0f387868f636dc4fb7360e01b886040518663ffffffff1660e01b815260040161122895949392919061307e565b600060405180830381865afa158015611245573d6000803e3d6000fd5b505050506040513d6000823e601f3d908101601f1916820160405261126d9190810190612c89565b915091506000828060200190518101906112879190612d0a565b979f979e50909b50959950505050505050505050565b6000805473ffffffffffffffffffffffffffffffffffffffff8381167fffffffffffffffffffffffff0000000000000000000000000000000000000000831681178455604051919092169283917f8be0079c531659141344cd1fd0a4f28419497f9722a3daafe3b4186f6b6457e09190a35050565b606060008061132189896108c9565b50915081905073ffffffffffffffffffffffffffffffffffffffff811661134c57506000905061072d565b6040517f01ffc9a70000000000000000000000000000000000000000000000000000000081527f9061b92300000000000000000000000000000000000000000000000000000000600482015260009073ffffffffffffffffffffffffffffffffffffffff8316906301ffc9a790602401602060405180830381865afa9250505080156113f5575060408051601f3d908101601f191682019092526113f2918101906130ff565b60015b156113fd5790505b604080516101206020601f8d01819004028201810190925261010081018b81526114f3928291908e908e9081908501838280828437600092019190915250505090825250602081018b9052604081018a90527fffffffff000000000000000000000000000000000000000000000000000000008916606082015273ffffffffffffffffffffffffffffffffffffffff8616608082015283151560a082015260c081018890528a5160e09091019067ffffffffffffffff8111156114c2576114c26123fd565b6040519080825280602002602001820160405280156114eb578160200160208202803683370190505b509052611798565b93505050965096945050505050565b600080600085858581811061151957611519612cdb565b919091013560f81c915050600081900361153a5750600091508190506104fa565b60006115468286612fa9565b611551906001612fa9565b905060008787611562886001612fa9565b61156e9285929061311c565b60405161157c929190613146565b604051809103902090506000806115948a8a86611502565b91509150600081846040516020016115b6929190918252602082015260400190565b60408051601f198184030181529082905280516020909101207f0178b8bf00000000000000000000000000000000000000000000000000000000825260048201819052915060009073ffffffffffffffffffffffffffffffffffffffff7f00000000000000000000000000000000000000000000000000000000000000001690630178b8bf90602401602060405180830381865afa15801561165c573d6000803e3d6000fd5b505050506040513d601f19601f820116820180604052508101906116809190612d0a565b905073ffffffffffffffffffffffffffffffffffffffff8116156116ad57975095506104fa945050505050565b50919a91995090975050505050505050565b60008060006116ce8585611edd565b90925090508161175a57600185516116e69190613156565b841461174e576040517f08c379a000000000000000000000000000000000000000000000000000000000815260206004820152601d60248201527f6e616d65686173683a204a756e6b20617420656e64206f66206e616d650000006044820152606401610665565b50600091506103d99050565b61176485826116bf565b6040805160208101929092528101839052606001604051602081830303815290604052805190602001209250505092915050565b6020810151516060906000808267ffffffffffffffff8111156117bd576117bd6123fd565b60405190808252806020026020018201604052801561182857816020015b6118156040518060600160405280600073ffffffffffffffffffffffffffffffffffffffff16815260200160608152602001606081525090565b8152602001906001900390816117db5790505b50905060008367ffffffffffffffff811115611846576118466123fd565b60405190808252806020026020018201604052801561188c57816020015b6040805180820190915260008152606060208201528152602001906001900390816118645790505b5090508367ffffffffffffffff8111156118a8576118a86123fd565b6040519080825280602002602001820160405280156118db57816020015b60608152602001906001900390816118c65790505b508651519095501560005b85811015611b325760008860200151828151811061190657611906612cdb565b6020026020010151905060008960200151838151811061192857611928612cdb565b6020026020010151905060008a60e00151848151811061194a5761194a612cdb565b60200260200101519050801561199d578a60200151848151811061197057611970612cdb565b60200260200101518a858151811061198a5761198a612cdb565b6020026020010181905250505050611b20565b8a60a0015115611a16578a516040516119bb91908490602401612f4c565b60408051601f198184030181529190526020810180517bffffffffffffffffffffffffffffffffffffffffffffffffffffffff167f9061b9230000000000000000000000000000000000000000000000000000000017905291505b6000806000611a298e6080015186611fae565b9250925092508215611a9c5781806020019051810190611a4991906131e9565b8a8c81518110611a5b57611a5b612cdb565b602002602001018190525080898881518110611a7957611a79612cdb565b6020908102919091010152611a8f60018c612fa9565b9a50505050505050611b20565b8715611ad85781806020019051810190611ab69190612ff4565b8d8881518110611ac857611ac8612cdb565b6020026020010181905250611af7565b818d8881518110611aeb57611aeb612cdb565b60200260200101819052505b85898881518110611b0a57611b0a612cdb565b6020026020010151602001819052505050505050505b80611b2a81612fbc565b9150506118e6565b5083600003611b45575050505050919050565b83835230876040015163a780bab660e01b85604051602401611b6791906132f1565b604051602081830303815290604052907bffffffffffffffffffffffffffffffffffffffffffffffffffffffff19166020820180517bffffffffffffffffffffffffffffffffffffffffffffffffffffffff838183161783525050505089606001518a608001518b604001518c60c0015188604051602001611bec9493929190613371565b60408051601f19818403018152908290527f556f1830000000000000000000000000000000000000000000000000000000008252610665959493929160040161344a565b805160609060009081908490611c47816002612fa9565b67ffffffffffffffff811115611c5f57611c5f6123fd565b6040519080825280601f01601f191660200182016040528015611c89576020820181803683370190505b50945060009350808403611ce657600060f81b85600081518110611caf57611caf612cdb565b60200101907effffffffffffffffffffffffffffffffffffffffffffffffffffffffffffff1916908160001a905350505050915091565b7fffffffffffffffffffffffffffffffffffffffffffffffffffffffffffffffff81015b828181518110611d1c57611d1c612cdb565b01602001517fff00000000000000000000000000000000000000000000000000000000000000167f2e0000000000000000000000000000000000000000000000000000000000000003611df6578360f81b868260010181518110611d8257611d82612cdb565b60200101907effffffffffffffffffffffffffffffffffffffffffffffffffffffffffffff1916908160001a90535084611dc3846001840160ff881661217a565b60408051602081019390935282015260600160405160208183030381529060405280519060200120945060009350611e5e565b600184019350828181518110611e0e57611e0e612cdb565b602001015160f81c60f81b868260010181518110611e2e57611e2e612cdb565b60200101907effffffffffffffffffffffffffffffffffffffffffffffffffffffffffffff1916908160001a9053505b8015611e8b577fffffffffffffffffffffffffffffffffffffffffffffffffffffffffffffffff01611d0a565b5083611e9c83600060ff871661217a565b6040805160208101939093528201526060016040516020818303038152906040528051906020012093508260f81b85600081518110611caf57611caf612cdb565b60008083518310611f4a576040517f08c379a000000000000000000000000000000000000000000000000000000000815260206004820152601e60248201527f726561644c6162656c3a20496e646578206f7574206f6620626f756e647300006044820152606401610665565b6000848481518110611f5e57611f5e612cdb565b016020015160f81c90508015611f8a57611f8385611f7d866001612fa9565b8361217a565b9250611f8f565b600092505b611f998185612fa9565b611fa4906001612fa9565b9150509250929050565b60408051808201909152600080825260606020830181905290916000611fd4868661219e565b90503d8115611ff5576000611fea600083612257565b945094505050612173565b6004811061217057600061200b60006004612257565b90507f556f1830000000000000000000000000000000000000000000000000000000006120378261348b565b7fffffffff00000000000000000000000000000000000000000000000000000000160361216e576000612074600461206f8186613156565b612257565b905060008060008060008580602001905181019061209291906134db565b945094509450945094508d73ffffffffffffffffffffffffffffffffffffffff168573ffffffffffffffffffffffffffffffffffffffff16036121675760405180606001604052808673ffffffffffffffffffffffffffffffffffffffff16815260200185815260200184815250604051602001612110919061358b565b60408051601f198184030181528282019091527fffffffff000000000000000000000000000000000000000000000000000000009093168152602081019190915260019b5090995097506121739650505050505050565b5050505050505b505b50505b9250925092565b82516000906121898385612fa9565b111561219457600080fd5b5091016020012090565b600073ffffffffffffffffffffffffffffffffffffffff83163b612244576040517f08c379a000000000000000000000000000000000000000000000000000000000815260206004820152602e60248201527f4c6f774c6576656c43616c6c5574696c733a207374617469632063616c6c207460448201527f6f206e6f6e2d636f6e74726163740000000000000000000000000000000000006064820152608401610665565b600080835160208501865afa9392505050565b60608167ffffffffffffffff811115612272576122726123fd565b6040519080825280601f01601f19166020018201604052801561229c576020820181803683370190505b5090508183602083013e92915050565b8280548282559060005260206000209081019282156122f2579160200282015b828111156122f257825182906122e290826135ed565b50916020019190600101906122cc565b506122fe929150612302565b5090565b808211156122fe576000612316828261231f565b50600101612302565b50805461232b90612bf1565b6000825580601f1061233b575050565b601f016020900490600052602060002090810190610d7d91905b808211156122fe5760008155600101612355565b7fffffffff0000000000000000000000000000000000000000000000000000000081168114610d7d57600080fd5b6000602082840312156123a957600080fd5b81356123b481612369565b9392505050565b60008083601f8401126123cd57600080fd5b50813567ffffffffffffffff8111156123e557600080fd5b6020830191508360208285010111156108e357600080fd5b7f4e487b7100000000000000000000000000000000000000000000000000000000600052604160045260246000fd5b6040805190810167ffffffffffffffff8111828210171561244f5761244f6123fd565b60405290565b604051601f8201601f1916810167ffffffffffffffff8111828210171561247e5761247e6123fd565b604052919050565b600067ffffffffffffffff8211156124a0576124a06123fd565b50601f01601f191660200190565b60006124c16124bc84612486565b612455565b90508281528383830111156124d557600080fd5b828260208301376000602084830101529392505050565b600082601f8301126124fd57600080fd5b6123b4838335602085016124ae565b600067ffffffffffffffff821115612526576125266123fd565b5060051b60200190565b600082601f83011261254157600080fd5b813560206125516124bc8361250c565b82815260059290921b8401810191818101908684111561257057600080fd5b8286015b848110156125c557803567ffffffffffffffff8111156125945760008081fd5b8701603f810189136125a65760008081fd5b6125b78986830135604084016124ae565b845250918301918301612574565b509695505050505050565b600080600080606085870312156125e657600080fd5b843567ffffffffffffffff808211156125fe57600080fd5b61260a888389016123bb565b9096509450602087013591508082111561262357600080fd5b61262f888389016124ec565b9350604087013591508082111561264557600080fd5b5061265287828801612530565b91505092959194509250565b60005b83811015612679578181015183820152602001612661565b50506000910152565b6000815180845261269a81602086016020860161265e565b601f01601f19169290920160200192915050565b6040815260006126c16040830185612682565b905073ffffffffffffffffffffffffffffffffffffffff831660208301529392505050565b600082601f8301126126f757600080fd5b813560206127076124bc8361250c565b82815260059290921b8401810191818101908684111561272657600080fd5b8286015b848110156125c557803567ffffffffffffffff81111561274a5760008081fd5b6127588986838b01016124ec565b84525091830191830161272a565b60008060006040848603121561277b57600080fd5b833567ffffffffffffffff8082111561279357600080fd5b61279f878388016123bb565b909550935060208601359150808211156127b857600080fd5b506127c5868287016126e6565b9150509250925092565b6000604082016040835280855180835260608501915060608160051b8601019250602080880160005b83811015612844577fffffffffffffffffffffffffffffffffffffffffffffffffffffffffffffffa0888703018552612832868351612682565b955093820193908201906001016127f8565b505083945073ffffffffffffffffffffffffffffffffffffffff871681870152505050509392505050565b6000806000806040858703121561288557600080fd5b843567ffffffffffffffff8082111561289d57600080fd5b6128a9888389016123bb565b909650945060208701359150808211156128c257600080fd5b506128cf878288016123bb565b95989497509550505050565b6080815260006128ee6080830187612682565b73ffffffffffffffffffffffffffffffffffffffff95861660208401529385166040830152509216606090920191909152919050565b6000806000806060858703121561293a57600080fd5b843567ffffffffffffffff8082111561295257600080fd5b61295e888389016123bb565b9096509450602087013591508082111561297757600080fd5b61262f888389016126e6565b60008060008060008060a0878903121561299c57600080fd5b863567ffffffffffffffff808211156129b457600080fd5b6129c08a838b016123bb565b909850965060208901359150808211156129d957600080fd5b6129e58a838b016124ec565b955060408901359150808211156129fb57600080fd5b612a078a838b01612530565b945060608901359150612a1982612369565b90925060808801359080821115612a2f57600080fd5b50612a3c89828a016124ec565b9150509295509295509295565b600060208284031215612a5b57600080fd5b813567ffffffffffffffff811115612a7257600080fd5b612a7e84828501612530565b949350505050565b600080600060408486031215612a9b57600080fd5b833567ffffffffffffffff80821115612ab357600080fd5b612abf878388016123bb565b90955093506020860135915080821115612ad857600080fd5b506127c5868287016124ec565b60008060208385031215612af857600080fd5b823567ffffffffffffffff811115612b0f57600080fd5b612b1b858286016123bb565b90969095509350505050565b600060208284031215612b3957600080fd5b5035919050565b6020815260006123b46020830184612682565b600080600060408486031215612b6857600080fd5b833567ffffffffffffffff80821115612b8057600080fd5b612b8c878388016123bb565b90955093506020860135915080821115612ba557600080fd5b506127c586828701612530565b73ffffffffffffffffffffffffffffffffffffffff81168114610d7d57600080fd5b600060208284031215612be657600080fd5b81356123b481612bb2565b600181811c90821680612c0557607f821691505b602082108103612c3e577f4e487b7100000000000000000000000000000000000000000000000000000000600052602260045260246000fd5b50919050565b600082601f830112612c5557600080fd5b8151612c636124bc82612486565b818152846020838601011115612c7857600080fd5b612a7e82602083016020870161265e565b60008060408385031215612c9c57600080fd5b825167ffffffffffffffff811115612cb357600080fd5b612cbf85828601612c44565b9250506020830151612cd081612bb2565b809150509250929050565b7f4e487b7100000000000000000000000000000000000000000000000000000000600052603260045260246000fd5b600060208284031215612d1c57600080fd5b81516123b481612bb2565b8015158114610d7d57600080fd5b60008060408385031215612d4857600080fd5b823567ffffffffffffffff80821115612d6057600080fd5b818501915085601f830112612d7457600080fd5b81356020612d846124bc8361250c565b82815260059290921b84018101918181019089841115612da357600080fd5b948201945b83861015612dca578535612dbb81612d27565b82529482019490820190612da8565b96505086013592505080821115612de057600080fd5b50611fa4858286016126e6565b60008060008060808587031215612e0357600080fd5b612e0d8535612bb2565b84359350602085013567ffffffffffffffff80821115612e2c57600080fd5b612e3888838901612530565b94506040870135915080821115612e4e57600080fd5b612e5a888389016124ec565b93506060870135915080821115612e7057600080fd5b818701915087601f830112612e8457600080fd5b8135612e926124bc8261250c565b8082825260208201915060208360051b86010192508a831115612eb457600080fd5b602085015b83811015612f3c578481351115612ecf57600080fd5b803586016040601f19828f03011215612ee757600080fd5b612eef61242c565b6020820135612efd81612369565b8152604082013587811115612f1157600080fd5b612f208f6020838601016124ec565b6020830152508085525050602083019250602081019050612eb9565b50979a9699509497505050505050565b604081526000612f5f6040830185612682565b8281036020840152612f718185612682565b95945050505050565b7f4e487b7100000000000000000000000000000000000000000000000000000000600052601160045260246000fd5b808201808211156103d9576103d9612f7a565b60007fffffffffffffffffffffffffffffffffffffffffffffffffffffffffffffffff8203612fed57612fed612f7a565b5060010190565b60006020828403121561300657600080fd5b815167ffffffffffffffff81111561301d57600080fd5b612a7e84828501612c44565b600081518084526020808501808196508360051b8101915082860160005b8581101561307157828403895261305f848351612682565b98850198935090840190600101613047565b5091979650505050505050565b60a08152600061309160a0830188612682565b82810360208401526130a38188612682565b905082810360408401526130b78187613029565b90507fffffffff000000000000000000000000000000000000000000000000000000008516606084015282810360808401526130f38185612682565b98975050505050505050565b60006020828403121561311157600080fd5b81516123b481612d27565b6000808585111561312c57600080fd5b8386111561313957600080fd5b5050820193919092039150565b8183823760009101908152919050565b818103818111156103d9576103d9612f7a565b600082601f83011261317a57600080fd5b8151602061318a6124bc8361250c565b82815260059290921b840181019181810190868411156131a957600080fd5b8286015b848110156125c557805167ffffffffffffffff8111156131cd5760008081fd5b6131db8986838b0101612c44565b8452509183019183016131ad565b6000602082840312156131fb57600080fd5b815167ffffffffffffffff8082111561321357600080fd5b908301906060828603121561322757600080fd5b604051606081018181108382111715613242576132426123fd565b604052825161325081612bb2565b815260208301518281111561326457600080fd5b61327087828601613169565b60208301525060408301518281111561328857600080fd5b61329487828601612c44565b60408301525095945050505050565b73ffffffffffffffffffffffffffffffffffffffff815116825260006020820151606060208501526132d86060850182613029565b905060408301518482036040860152612f718282612682565b6000602080830181845280855180835260408601915060408160051b870101925083870160005b82811015613364577fffffffffffffffffffffffffffffffffffffffffffffffffffffffffffffffc08886030184526133528583516132a3565b94509285019290850190600101613318565b5092979650505050505050565b73ffffffffffffffffffffffffffffffffffffffff85168152600060206080818401526133a16080840187613029565b6040848203818601526133b48288612682565b915084820360608601528186518084528484019150848160051b85010185890160005b8381101561343857868303601f19018552815180517fffffffff0000000000000000000000000000000000000000000000000000000016845288015188840187905261342587850182612682565b95890195935050908701906001016133d7565b50909c9b505050505050505050505050565b73ffffffffffffffffffffffffffffffffffffffff8616815260a06020820152600061347960a0830187613029565b82810360408401526130b78187612682565b6000815160208301517fffffffff00000000000000000000000000000000000000000000000000000000808216935060048310156134d35780818460040360031b1b83161693505b505050919050565b600080600080600060a086880312156134f357600080fd5b85516134fe81612bb2565b602087015190955067ffffffffffffffff8082111561351c57600080fd5b61352889838a01613169565b9550604088015191508082111561353e57600080fd5b61354a89838a01612c44565b94506060880151915061355c82612369565b60808801519193508082111561357157600080fd5b5061357e88828901612c44565b9150509295509295909350565b6020815260006123b460208301846132a3565b601f8211156135e857600081815260208120601f850160051c810160208610156135c55750805b601f850160051c820191505b818110156135e4578281556001016135d1565b5050505b505050565b815167ffffffffffffffff811115613607576136076123fd565b61361b816136158454612bf1565b8461359e565b602080601f83116001811461366e57600084156136385750858301515b7fffffffffffffffffffffffffffffffffffffffffffffffffffffffffffffffff600386901b1c1916600185901b1785556135e4565b600085815260208120601f198616915b8281101561369d5788860151825594840194600190910190840161367e565b50858210156136d957878501517fffffffffffffffffffffffffffffffffffffffffffffffffffffffffffffffff600388901b60f8161c191681555b5050505050600190811b0190555056fea26469706673582212207982288775e6c5d1ef41d2dabc0179ab0bd8d43b80c93eacb8a9fa27f073056a64736f6c63430008110033",
  "linkReferences": {},
  "deployedLinkReferences": {}
}